{
  "_format": "hh-sol-artifact-1",
  "contractName": "FanArena",
  "sourceName": "contracts/FanArena.sol",
  "abi": [
    {
      "inputs": [],
      "stateMutability": "nonpayable",
      "type": "constructor"
    },
    {
      "anonymous": false,
      "inputs": [
        {
          "indexed": false,
          "internalType": "uint256",
          "name": "id",
          "type": "uint256"
        },
        {
          "indexed": false,
          "internalType": "string",
          "name": "title",
          "type": "string"
        },
        {
          "indexed": false,
          "internalType": "address",
          "name": "creator",
          "type": "address"
        },
        {
          "indexed": false,
          "internalType": "uint256",
          "name": "startTime",
          "type": "uint256"
        },
        {
          "indexed": false,
          "internalType": "uint256",
          "name": "endTime",
          "type": "uint256"
        }
      ],
      "name": "ProposalCreated",
      "type": "event"
    },
    {
      "anonymous": false,
      "inputs": [
        {
          "indexed": false,
          "internalType": "uint256",
          "name": "proposalId",
          "type": "uint256"
        },
        {
          "indexed": false,
          "internalType": "address",
          "name": "voter",
          "type": "address"
        },
        {
          "indexed": false,
          "internalType": "bool",
          "name": "voteFor",
          "type": "bool"
        }
      ],
      "name": "Voted",
      "type": "event"
    },
    {
      "inputs": [
        {
          "internalType": "string",
          "name": "_title",
          "type": "string"
        },
        {
          "internalType": "string",
          "name": "_description",
          "type": "string"
        },
        {
          "internalType": "uint256",
          "name": "_votingPeriodInDays",
          "type": "uint256"
        }
      ],
      "name": "createProposal",
      "outputs": [],
      "stateMutability": "nonpayable",
      "type": "function"
    },
    {
      "inputs": [],
      "name": "getAllProposals",
      "outputs": [
        {
          "components": [
            {
              "internalType": "uint256",
              "name": "id",
              "type": "uint256"
            },
            {
              "internalType": "string",
              "name": "title",
              "type": "string"
            },
            {
              "internalType": "string",
              "name": "description",
              "type": "string"
            },
            {
              "internalType": "uint256",
              "name": "voteCountFor",
              "type": "uint256"
            },
            {
              "internalType": "uint256",
              "name": "voteCountAgainst",
              "type": "uint256"
            },
            {
              "internalType": "uint256",
              "name": "startTime",
              "type": "uint256"
            },
            {
              "internalType": "uint256",
              "name": "endTime",
              "type": "uint256"
            },
            {
              "internalType": "bool",
              "name": "active",
              "type": "bool"
            },
            {
              "internalType": "address",
              "name": "creator",
              "type": "address"
            }
          ],
          "internalType": "struct FanArena.Proposal[]",
          "name": "",
          "type": "tuple[]"
        }
      ],
      "stateMutability": "view",
      "type": "function"
    },
    {
      "inputs": [
        {
          "internalType": "uint256",
          "name": "_proposalId",
          "type": "uint256"
        }
      ],
      "name": "getProposal",
      "outputs": [
        {
          "internalType": "uint256",
          "name": "id",
          "type": "uint256"
        },
        {
          "internalType": "string",
          "name": "title",
          "type": "string"
        },
        {
          "internalType": "string",
          "name": "description",
          "type": "string"
        },
        {
          "internalType": "uint256",
          "name": "voteCountFor",
          "type": "uint256"
        },
        {
          "internalType": "uint256",
          "name": "voteCountAgainst",
          "type": "uint256"
        },
        {
          "internalType": "uint256",
          "name": "startTime",
          "type": "uint256"
        },
        {
          "internalType": "uint256",
          "name": "endTime",
          "type": "uint256"
        },
        {
          "internalType": "bool",
          "name": "active",
          "type": "bool"
        },
        {
          "internalType": "address",
          "name": "creator",
          "type": "address"
        }
      ],
      "stateMutability": "view",
      "type": "function"
    },
    {
      "inputs": [
        {
          "internalType": "uint256",
          "name": "_proposalId",
          "type": "uint256"
        },
        {
          "internalType": "address",
          "name": "_user",
          "type": "address"
        }
      ],
      "name": "hasUserVoted",
      "outputs": [
        {
          "internalType": "bool",
          "name": "",
          "type": "bool"
        }
      ],
      "stateMutability": "view",
      "type": "function"
    },
    {
      "inputs": [
        {
          "internalType": "uint256",
          "name": "",
          "type": "uint256"
        },
        {
          "internalType": "address",
          "name": "",
          "type": "address"
        }
      ],
      "name": "hasVoted",
      "outputs": [
        {
          "internalType": "bool",
          "name": "",
          "type": "bool"
        }
      ],
      "stateMutability": "view",
      "type": "function"
    },
    {
      "inputs": [],
      "name": "nextProposalId",
      "outputs": [
        {
          "internalType": "uint256",
          "name": "",
          "type": "uint256"
        }
      ],
      "stateMutability": "view",
      "type": "function"
    },
    {
      "inputs": [
        {
          "internalType": "uint256",
          "name": "",
          "type": "uint256"
        }
      ],
      "name": "proposals",
      "outputs": [
        {
          "internalType": "uint256",
          "name": "id",
          "type": "uint256"
        },
        {
          "internalType": "string",
          "name": "title",
          "type": "string"
        },
        {
          "internalType": "string",
          "name": "description",
          "type": "string"
        },
        {
          "internalType": "uint256",
          "name": "voteCountFor",
          "type": "uint256"
        },
        {
          "internalType": "uint256",
          "name": "voteCountAgainst",
          "type": "uint256"
        },
        {
          "internalType": "uint256",
          "name": "startTime",
          "type": "uint256"
        },
        {
          "internalType": "uint256",
          "name": "endTime",
          "type": "uint256"
        },
        {
          "internalType": "bool",
          "name": "active",
          "type": "bool"
        },
        {
          "internalType": "address",
          "name": "creator",
          "type": "address"
        }
      ],
      "stateMutability": "view",
      "type": "function"
    },
    {
      "inputs": [
        {
          "internalType": "uint256",
          "name": "_proposalId",
          "type": "uint256"
        },
        {
          "internalType": "bool",
          "name": "_voteFor",
          "type": "bool"
        }
      ],
      "name": "vote",
      "outputs": [],
      "stateMutability": "nonpayable",
      "type": "function"
    }
  ],
  "bytecode": "0x6080604052348015600f57600080fd5b5060008081905550611c11806100266000396000f3fe608060405234801561001057600080fd5b50600436106100885760003560e01c8063c7f758a81161005b578063c7f758a81461012f578063c9d27afe14610167578063cceb68f514610183578063dc296ae1146101a157610088565b8063013cf08b1461008d5780630ce0ebf4146100c55780632ab09d14146100e157806343859632146100ff575b600080fd5b6100a760048036038101906100a29190610e0a565b6101d1565b6040516100bc99989796959493929190610f32565b60405180910390f35b6100df60048036038101906100da9190611102565b61036c565b005b6100e9610584565b6040516100f6919061118d565b60405180910390f35b610119600480360381019061011491906111d4565b61058a565b6040516101269190611214565b60405180910390f35b61014960048036038101906101449190610e0a565b6105b9565b60405161015e99989796959493929190610f32565b60405180910390f35b610181600480360381019061017c919061125b565b6107d0565b005b61018b610a6c565b60405161019891906114a0565b60405180910390f35b6101bb60048036038101906101b691906111d4565b610cf4565b6040516101c89190611214565b60405180910390f35b600181815481106101e157600080fd5b906000526020600020906008020160009150905080600001549080600101805461020a906114f1565b80601f0160208091040260200160405190810160405280929190818152602001828054610236906114f1565b80156102835780601f1061025857610100808354040283529160200191610283565b820191906000526020600020905b81548152906001019060200180831161026657829003601f168201915b505050505090806002018054610298906114f1565b80601f01602080910402602001604051908101604052809291908181526020018280546102c4906114f1565b80156103115780601f106102e657610100808354040283529160200191610311565b820191906000526020600020905b8154815290600101906020018083116102f457829003601f168201915b5050505050908060030154908060040154908060050154908060060154908060070160009054906101000a900460ff16908060070160019054906101000a900473ffffffffffffffffffffffffffffffffffffffff16905089565b600081116103af576040517f08c379a00000000000000000000000000000000000000000000000000000000081526004016103a690611594565b60405180910390fd5b6000805490506000429050600062015180846103cb91906115e3565b826103d69190611625565b9050600160405180610120016040528085815260200188815260200187815260200160008152602001600081526020018481526020018381526020016001151581526020013373ffffffffffffffffffffffffffffffffffffffff16815250908060018154018082558091505060019003906000526020600020906008020160009091909190915060008201518160000155602082015181600101908161047d9190611805565b5060408201518160020190816104939190611805565b50606082015181600301556080820151816004015560a0820151816005015560c0820151816006015560e08201518160070160006101000a81548160ff0219169083151502179055506101008201518160070160016101000a81548173ffffffffffffffffffffffffffffffffffffffff021916908373ffffffffffffffffffffffffffffffffffffffff1602179055505050600080815480929190610538906118d7565b91905055507f331b791e5a0526c6d6f17a46c1d4139542c8579c245d9f8082d0b1462942f4fa838733858560405161057495949392919061191f565b60405180910390a1505050505050565b60005481565b60026020528160005260406000206020528060005260406000206000915091509054906101000a900460ff1681565b60006060806000806000806000806001805490508a1061060e576040517f08c379a0000000000000000000000000000000000000000000000000000000008152600401610605906119c5565b60405180910390fd5b600060018b81548110610624576106236119e5565b5b9060005260206000209060080201905060008160050154421015801561064e575081600601544211155b9050816000015482600101836002018460030154856004015486600501548760060154878960070160019054906101000a900473ffffffffffffffffffffffffffffffffffffffff168780546106a3906114f1565b80601f01602080910402602001604051908101604052809291908181526020018280546106cf906114f1565b801561071c5780601f106106f15761010080835404028352916020019161071c565b820191906000526020600020905b8154815290600101906020018083116106ff57829003601f168201915b5050505050975086805461072f906114f1565b80601f016020809104026020016040519081016040528092919081815260200182805461075b906114f1565b80156107a85780601f1061077d576101008083540402835291602001916107a8565b820191906000526020600020905b81548152906001019060200180831161078b57829003601f168201915b505050505096509a509a509a509a509a509a509a509a509a5050509193959799909294969850565b6001805490508210610817576040517f08c379a000000000000000000000000000000000000000000000000000000000815260040161080e906119c5565b60405180910390fd5b60006001838154811061082d5761082c6119e5565b5b906000526020600020906008020190508060070160009054906101000a900460ff1661088e576040517f08c379a000000000000000000000000000000000000000000000000000000000815260040161088590611a60565b60405180910390fd5b806005015442101580156108a6575080600601544211155b6108e5576040517f08c379a00000000000000000000000000000000000000000000000000000000081526004016108dc90611af2565b60405180910390fd5b6002600084815260200190815260200160002060003373ffffffffffffffffffffffffffffffffffffffff1673ffffffffffffffffffffffffffffffffffffffff16815260200190815260200160002060009054906101000a900460ff1615610983576040517f08c379a000000000000000000000000000000000000000000000000000000000815260040161097a90611b84565b60405180910390fd5b81156109a85780600301600081548092919061099e906118d7565b91905055506109c3565b8060040160008154809291906109bd906118d7565b91905055505b60016002600085815260200190815260200160002060003373ffffffffffffffffffffffffffffffffffffffff1673ffffffffffffffffffffffffffffffffffffffff16815260200190815260200160002060006101000a81548160ff0219169083151502179055507ff2913dbe661ee2acc4a046d8fbcdc792373bda34c41c6086484b5345e5785e5f833384604051610a5f93929190611ba4565b60405180910390a1505050565b6060600060018054905067ffffffffffffffff811115610a8f57610a8e610fd7565b5b604051908082528060200260200182016040528015610ac857816020015b610ab5610d5c565b815260200190600190039081610aad5790505b50905060005b600180549050811015610cec57600060018281548110610af157610af06119e5565b5b9060005260206000209060080201905060405180610120016040528082600001548152602001826001018054610b26906114f1565b80601f0160208091040260200160405190810160405280929190818152602001828054610b52906114f1565b8015610b9f5780601f10610b7457610100808354040283529160200191610b9f565b820191906000526020600020905b815481529060010190602001808311610b8257829003601f168201915b50505050508152602001826002018054610bb8906114f1565b80601f0160208091040260200160405190810160405280929190818152602001828054610be4906114f1565b8015610c315780601f10610c0657610100808354040283529160200191610c31565b820191906000526020600020905b815481529060010190602001808311610c1457829003601f168201915b505050505081526020018260030154815260200182600401548152602001826005015481526020018260060154815260200182600501544210158015610c7b575082600601544211155b151581526020018260070160019054906101000a900473ffffffffffffffffffffffffffffffffffffffff1673ffffffffffffffffffffffffffffffffffffffff16815250838381518110610cd357610cd26119e5565b5b6020026020010181905250508080600101915050610ace565b508091505090565b60006002600084815260200190815260200160002060008373ffffffffffffffffffffffffffffffffffffffff1673ffffffffffffffffffffffffffffffffffffffff16815260200190815260200160002060009054906101000a900460ff16905092915050565b60405180610120016040528060008152602001606081526020016060815260200160008152602001600081526020016000815260200160008152602001600015158152602001600073ffffffffffffffffffffffffffffffffffffffff1681525090565b6000604051905090565b600080fd5b600080fd5b6000819050919050565b610de781610dd4565b8114610df257600080fd5b50565b600081359050610e0481610dde565b92915050565b600060208284031215610e2057610e1f610dca565b5b6000610e2e84828501610df5565b91505092915050565b610e4081610dd4565b82525050565b600081519050919050565b600082825260208201905092915050565b60005b83811015610e80578082015181840152602081019050610e65565b60008484015250505050565b6000601f19601f8301169050919050565b6000610ea882610e46565b610eb28185610e51565b9350610ec2818560208601610e62565b610ecb81610e8c565b840191505092915050565b60008115159050919050565b610eeb81610ed6565b82525050565b600073ffffffffffffffffffffffffffffffffffffffff82169050919050565b6000610f1c82610ef1565b9050919050565b610f2c81610f11565b82525050565b600061012082019050610f48600083018c610e37565b8181036020830152610f5a818b610e9d565b90508181036040830152610f6e818a610e9d565b9050610f7d6060830189610e37565b610f8a6080830188610e37565b610f9760a0830187610e37565b610fa460c0830186610e37565b610fb160e0830185610ee2565b610fbf610100830184610f23565b9a9950505050505050505050565b600080fd5b600080fd5b7f4e487b7100000000000000000000000000000000000000000000000000000000600052604160045260246000fd5b61100f82610e8c565b810181811067ffffffffffffffff8211171561102e5761102d610fd7565b5b80604052505050565b6000611041610dc0565b905061104d8282611006565b919050565b600067ffffffffffffffff82111561106d5761106c610fd7565b5b61107682610e8c565b9050602081019050919050565b82818337600083830152505050565b60006110a56110a084611052565b611037565b9050828152602081018484840111156110c1576110c0610fd2565b5b6110cc848285611083565b509392505050565b600082601f8301126110e9576110e8610fcd565b5b81356110f9848260208601611092565b91505092915050565b60008060006060848603121561111b5761111a610dca565b5b600084013567ffffffffffffffff81111561113957611138610dcf565b5b611145868287016110d4565b935050602084013567ffffffffffffffff81111561116657611165610dcf565b5b611172868287016110d4565b925050604061118386828701610df5565b9150509250925092565b60006020820190506111a26000830184610e37565b92915050565b6111b181610f11565b81146111bc57600080fd5b50565b6000813590506111ce816111a8565b92915050565b600080604083850312156111eb576111ea610dca565b5b60006111f985828601610df5565b925050602061120a858286016111bf565b9150509250929050565b60006020820190506112296000830184610ee2565b92915050565b61123881610ed6565b811461124357600080fd5b50565b6000813590506112558161122f565b92915050565b6000806040838503121561127257611271610dca565b5b600061128085828601610df5565b925050602061129185828601611246565b9150509250929050565b600081519050919050565b600082825260208201905092915050565b6000819050602082019050919050565b6112d081610dd4565b82525050565b600082825260208201905092915050565b60006112f282610e46565b6112fc81856112d6565b935061130c818560208601610e62565b61131581610e8c565b840191505092915050565b61132981610ed6565b82525050565b61133881610f11565b82525050565b60006101208301600083015161135760008601826112c7565b506020830151848203602086015261136f82826112e7565b9150506040830151848203604086015261138982826112e7565b915050606083015161139e60608601826112c7565b5060808301516113b160808601826112c7565b5060a08301516113c460a08601826112c7565b5060c08301516113d760c08601826112c7565b5060e08301516113ea60e0860182611320565b506101008301516113ff61010086018261132f565b508091505092915050565b6000611416838361133e565b905092915050565b6000602082019050919050565b60006114368261129b565b61144081856112a6565b935083602082028501611452856112b7565b8060005b8581101561148e578484038952815161146f858261140a565b945061147a8361141e565b925060208a01995050600181019050611456565b50829750879550505050505092915050565b600060208201905081810360008301526114ba818461142b565b905092915050565b7f4e487b7100000000000000000000000000000000000000000000000000000000600052602260045260246000fd5b6000600282049050600182168061150957607f821691505b60208210810361151c5761151b6114c2565b5b50919050565b7f566f74696e6720706572696f64206d757374206265206174206c65617374203160008201527f2064617900000000000000000000000000000000000000000000000000000000602082015250565b600061157e602483610e51565b915061158982611522565b604082019050919050565b600060208201905081810360008301526115ad81611571565b9050919050565b7f4e487b7100000000000000000000000000000000000000000000000000000000600052601160045260246000fd5b60006115ee82610dd4565b91506115f983610dd4565b925082820261160781610dd4565b9150828204841483151761161e5761161d6115b4565b5b5092915050565b600061163082610dd4565b915061163b83610dd4565b9250828201905080821115611653576116526115b4565b5b92915050565b60008190508160005260206000209050919050565b60006020601f8301049050919050565b600082821b905092915050565b6000600883026116bb7fffffffffffffffffffffffffffffffffffffffffffffffffffffffffffffffff8261167e565b6116c5868361167e565b95508019841693508086168417925050509392505050565b6000819050919050565b60006117026116fd6116f884610dd4565b6116dd565b610dd4565b9050919050565b6000819050919050565b61171c836116e7565b61173061172882611709565b84845461168b565b825550505050565b600090565b611745611738565b611750818484611713565b505050565b5b818110156117745761176960008261173d565b600181019050611756565b5050565b601f8211156117b95761178a81611659565b6117938461166e565b810160208510156117a2578190505b6117b66117ae8561166e565b830182611755565b50505b505050565b600082821c905092915050565b60006117dc600019846008026117be565b1980831691505092915050565b60006117f583836117cb565b9150826002028217905092915050565b61180e82610e46565b67ffffffffffffffff81111561182757611826610fd7565b5b61183182546114f1565b61183c828285611778565b600060209050601f83116001811461186f576000841561185d578287015190505b61186785826117e9565b8655506118cf565b601f19841661187d86611659565b60005b828110156118a557848901518255600182019150602085019450602081019050611880565b868310156118c257848901516118be601f8916826117cb565b8355505b6001600288020188555050505b505050505050565b60006118e282610dd4565b91507fffffffffffffffffffffffffffffffffffffffffffffffffffffffffffffffff8203611914576119136115b4565b5b600182019050919050565b600060a0820190506119346000830188610e37565b81810360208301526119468187610e9d565b90506119556040830186610f23565b6119626060830185610e37565b61196f6080830184610e37565b9695505050505050565b7f496e76616c69642070726f706f73616c20494400000000000000000000000000600082015250565b60006119af601383610e51565b91506119ba82611979565b602082019050919050565b600060208201905081810360008301526119de816119a2565b9050919050565b7f4e487b7100000000000000000000000000000000000000000000000000000000600052603260045260246000fd5b7f50726f706f73616c206973206e6f742061637469766500000000000000000000600082015250565b6000611a4a601683610e51565b9150611a5582611a14565b602082019050919050565b60006020820190508181036000830152611a7981611a3d565b9050919050565b7f566f74696e67206973206e6f742063757272656e746c79206f70656e20666f7260008201527f20746869732070726f706f73616c000000000000000000000000000000000000602082015250565b6000611adc602e83610e51565b9150611ae782611a80565b604082019050919050565b60006020820190508181036000830152611b0b81611acf565b9050919050565b7f596f75206861766520616c726561647920766f746564206f6e2074686973207060008201527f726f706f73616c00000000000000000000000000000000000000000000000000602082015250565b6000611b6e602783610e51565b9150611b7982611b12565b604082019050919050565b60006020820190508181036000830152611b9d81611b61565b9050919050565b6000606082019050611bb96000830186610e37565b611bc66020830185610f23565b611bd36040830184610ee2565b94935050505056fea26469706673582212205559be8bcdedf1aa031a235d6b6f78a20d379bbc12d0399fa1cb57b310c555dc64736f6c634300081c0033",
  "linkReferences": {},
  "deployedLinkReferences": {}
}